{
  "contractName": "DecentralizedExamSystem",
  "abi": [
    {
      "anonymous": false,
      "inputs": [
        {
          "indexed": false,
          "internalType": "address",
          "name": "student",
          "type": "address"
        },
        {
          "indexed": false,
          "internalType": "uint256",
          "name": "examId",
          "type": "uint256"
        },
        {
          "indexed": false,
          "internalType": "string",
          "name": "answer",
          "type": "string"
        },
        {
          "indexed": false,
          "internalType": "uint256",
          "name": "submissionTime",
          "type": "uint256"
        }
      ],
      "name": "AnswerSubmitted",
      "type": "event"
    },
    {
      "anonymous": false,
      "inputs": [
        {
          "indexed": false,
          "internalType": "uint256",
          "name": "examId",
          "type": "uint256"
        }
      ],
      "name": "ExamActivated",
      "type": "event"
    },
    {
      "anonymous": false,
      "inputs": [
        {
          "indexed": false,
          "internalType": "uint256",
          "name": "examId",
          "type": "uint256"
        },
        {
          "indexed": false,
          "internalType": "string",
          "name": "examName",
          "type": "string"
        },
        {
          "indexed": false,
          "internalType": "address",
          "name": "creator",
          "type": "address"
        },
        {
          "indexed": false,
          "internalType": "uint256",
          "name": "creationTime",
          "type": "uint256"
        }
      ],
      "name": "ExamCreated",
      "type": "event"
    },
    {
      "anonymous": false,
      "inputs": [
        {
          "indexed": false,
          "internalType": "uint256",
          "name": "examId",
          "type": "uint256"
        }
      ],
      "name": "ExamDeactivated",
      "type": "event"
    },
    {
      "inputs": [
        {
          "internalType": "uint256",
          "name": "",
          "type": "uint256"
        }
      ],
      "name": "activeExams",
      "outputs": [
        {
          "internalType": "uint256",
          "name": "",
          "type": "uint256"
        }
      ],
      "stateMutability": "view",
      "type": "function",
      "constant": true
    },
    {
      "inputs": [
        {
          "internalType": "address",
          "name": "",
          "type": "address"
        }
      ],
      "name": "creators",
      "outputs": [
        {
          "internalType": "bool",
          "name": "",
          "type": "bool"
        }
      ],
      "stateMutability": "view",
      "type": "function",
      "constant": true
    },
    {
      "inputs": [],
      "name": "examCount",
      "outputs": [
        {
          "internalType": "uint256",
          "name": "",
          "type": "uint256"
        }
      ],
      "stateMutability": "view",
      "type": "function",
      "constant": true
    },
    {
      "inputs": [
        {
          "internalType": "uint256",
          "name": "",
          "type": "uint256"
        }
      ],
      "name": "exams",
      "outputs": [
        {
          "internalType": "uint256",
          "name": "id",
          "type": "uint256"
        },
        {
          "internalType": "string",
          "name": "name",
          "type": "string"
        },
        {
          "internalType": "address",
          "name": "creator",
          "type": "address"
        },
        {
          "internalType": "uint256",
          "name": "creationTime",
          "type": "uint256"
        },
        {
          "internalType": "bool",
          "name": "isActive",
          "type": "bool"
        }
      ],
      "stateMutability": "view",
      "type": "function",
      "constant": true
    },
    {
      "inputs": [
        {
          "internalType": "address",
          "name": "",
          "type": "address"
        }
      ],
      "name": "students",
      "outputs": [
        {
          "internalType": "bool",
          "name": "isRegistered",
          "type": "bool"
        }
      ],
      "stateMutability": "view",
      "type": "function",
      "constant": true
    },
    {
      "inputs": [
        {
          "internalType": "address",
          "name": "",
          "type": "address"
        },
        {
          "internalType": "uint256",
          "name": "",
          "type": "uint256"
        }
      ],
      "name": "submissions",
      "outputs": [
        {
          "internalType": "uint256",
          "name": "examId",
          "type": "uint256"
        },
        {
          "internalType": "string",
          "name": "answer",
          "type": "string"
        },
        {
          "internalType": "bool",
          "name": "isSubmitted",
          "type": "bool"
        }
      ],
      "stateMutability": "view",
      "type": "function",
      "constant": true
    },
    {
      "inputs": [],
      "name": "registerAsCreator",
      "outputs": [],
      "stateMutability": "nonpayable",
      "type": "function"
    },
    {
      "inputs": [
        {
          "internalType": "address",
          "name": "_address",
          "type": "address"
        }
      ],
      "name": "isCreator",
      "outputs": [
        {
          "internalType": "bool",
          "name": "",
          "type": "bool"
        }
      ],
      "stateMutability": "view",
      "type": "function",
      "constant": true
    },
    {
      "inputs": [
        {
          "internalType": "string",
          "name": "_examName",
          "type": "string"
        }
      ],
      "name": "createExam",
      "outputs": [],
      "stateMutability": "nonpayable",
      "type": "function"
    },
    {
      "inputs": [
        {
          "internalType": "uint256",
          "name": "_examId",
          "type": "uint256"
        }
      ],
      "name": "activateExam",
      "outputs": [],
      "stateMutability": "nonpayable",
      "type": "function"
    },
    {
      "inputs": [
        {
          "internalType": "uint256",
          "name": "_examId",
          "type": "uint256"
        }
      ],
      "name": "deactivateExam",
      "outputs": [],
      "stateMutability": "nonpayable",
      "type": "function"
    },
    {
      "inputs": [],
      "name": "registerStudent",
      "outputs": [],
      "stateMutability": "nonpayable",
      "type": "function"
    },
    {
      "inputs": [
        {
          "internalType": "uint256",
          "name": "_examId",
          "type": "uint256"
        },
        {
          "internalType": "string",
          "name": "_answer",
          "type": "string"
        }
      ],
      "name": "submitAnswer",
      "outputs": [],
      "stateMutability": "nonpayable",
      "type": "function"
    },
    {
      "inputs": [
        {
          "internalType": "uint256",
          "name": "_examId",
          "type": "uint256"
        }
      ],
      "name": "getExam",
      "outputs": [
        {
          "components": [
            {
              "internalType": "uint256",
              "name": "id",
              "type": "uint256"
            },
            {
              "internalType": "string",
              "name": "name",
              "type": "string"
            },
            {
              "internalType": "address",
              "name": "creator",
              "type": "address"
            },
            {
              "internalType": "uint256",
              "name": "creationTime",
              "type": "uint256"
            },
            {
              "internalType": "bool",
              "name": "isActive",
              "type": "bool"
            }
          ],
          "internalType": "struct DecentralizedExamSystem.Exam",
          "name": "",
          "type": "tuple"
        }
      ],
      "stateMutability": "view",
      "type": "function",
      "constant": true
    },
    {
      "inputs": [
        {
          "internalType": "address",
          "name": "_student",
          "type": "address"
        },
        {
          "internalType": "uint256",
          "name": "_examId",
          "type": "uint256"
        }
      ],
      "name": "getSubmission",
      "outputs": [
        {
          "components": [
            {
              "internalType": "uint256",
              "name": "examId",
              "type": "uint256"
            },
            {
              "internalType": "string",
              "name": "answer",
              "type": "string"
            },
            {
              "internalType": "bool",
              "name": "isSubmitted",
              "type": "bool"
            }
          ],
          "internalType": "struct DecentralizedExamSystem.Submission",
          "name": "",
          "type": "tuple"
        }
      ],
      "stateMutability": "view",
      "type": "function",
      "constant": true
    },
    {
      "inputs": [],
      "name": "getActiveExams",
      "outputs": [
        {
          "internalType": "uint256[]",
          "name": "",
          "type": "uint256[]"
        }
      ],
      "stateMutability": "view",
      "type": "function",
      "constant": true
    }
  ],
  "bytecode": "0x608060405234801561001057600080fd5b5061217a806100206000396000f3fe608060405234801561001057600080fd5b50600436106101005760003560e01c8063944bda6311610097578063d9809dbb11610066578063d9809dbb14610289578063efd46065146102b9578063effd0010146102e9578063f97563d51461031b57610100565b8063944bda63146101f1578063a11f7f4e1461020d578063a6c807a91461023d578063b359340e1461026d57610100565b806342979658116100d357806342979658146101915780634c0f11611461019b5780638732abd5146101b7578063933166e1146101c157610100565b806301fa3bec146101055780630dfb1dbf14610121578063371937e11461013f5780634198cb3f1461015d575b600080fd5b61011f600480360381019061011a91906115f8565b61034b565b005b6101296105d6565b6040516101369190611d79565b60405180910390f35b6101476105dc565b6040516101549190611bb8565b60405180910390f35b610177600480360381019061017291906115cf565b610634565b604051610188959493929190611de0565b60405180910390f35b61019961071f565b005b6101b560048036038101906101b091906115cf565b610825565b005b6101bf610b3b565b005b6101db60048036038101906101d69190611529565b610c22565b6040516101e89190611bda565b60405180910390f35b61020b6004803603810190610206919061158e565b610c42565b005b610227600480360381019061022291906115cf565b610dd5565b6040516102349190611d79565b60405180910390f35b61025760048036038101906102529190611529565b610df9565b6040516102649190611bda565b60405180910390f35b610287600480360381019061028291906115cf565b610e24565b005b6102a3600480360381019061029e9190611552565b611003565b6040516102b09190611d57565b60405180910390f35b6102d360048036038101906102ce9190611529565b611125565b6040516102e09190611bda565b60405180910390f35b61030360048036038101906102fe9190611552565b61117b565b60405161031293929190611e3a565b60405180910390f35b610335600480360381019061033091906115cf565b611247565b6040516103429190611d35565b60405180910390f35b600160003373ffffffffffffffffffffffffffffffffffffffff1673ffffffffffffffffffffffffffffffffffffffff16815260200190815260200160002060000160009054906101000a900460ff166103da576040517f08c379a00000000000000000000000000000000000000000000000000000000081526004016103d190611cf5565b60405180910390fd5b60008083815260200190815260200160002060040160009054906101000a900460ff1661043c576040517f08c379a000000000000000000000000000000000000000000000000000000000815260040161043390611c95565b60405180910390fd5b600260003373ffffffffffffffffffffffffffffffffffffffff1673ffffffffffffffffffffffffffffffffffffffff168152602001908152602001600020600083815260200190815260200160002060020160009054906101000a900460ff16156104dd576040517f08c379a00000000000000000000000000000000000000000000000000000000081526004016104d490611d15565b60405180910390fd5b604051806060016040528083815260200182815260200160011515815250600260003373ffffffffffffffffffffffffffffffffffffffff1673ffffffffffffffffffffffffffffffffffffffff168152602001908152602001600020600084815260200190815260200160002060008201518160000155602082015181600101908051906020019061057192919061138a565b5060408201518160020160006101000a81548160ff0219169083151502179055509050507f4cabe8a1d3ec0bcd6f9e0601ba22be651e51de334ddd73a038a6167e91891392338383426040516105ca9493929190611b6c565b60405180910390a15050565b60035481565b6060600480548060200260200160405190810160405280929190818152602001828054801561062a57602002820191906000526020600020905b815481526020019060010190808311610616575b5050505050905090565b600060205280600052604060002060009150905080600001549080600101805461065d90611ffd565b80601f016020809104026020016040519081016040528092919081815260200182805461068990611ffd565b80156106d65780601f106106ab576101008083540402835291602001916106d6565b820191906000526020600020905b8154815290600101906020018083116106b957829003601f168201915b5050505050908060020160009054906101000a900473ffffffffffffffffffffffffffffffffffffffff16908060030154908060040160009054906101000a900460ff16905085565b600160003373ffffffffffffffffffffffffffffffffffffffff1673ffffffffffffffffffffffffffffffffffffffff16815260200190815260200160002060000160009054906101000a900460ff16156107af576040517f08c379a00000000000000000000000000000000000000000000000000000000081526004016107a690611c55565b60405180910390fd5b604051806020016040528060011515815250600160003373ffffffffffffffffffffffffffffffffffffffff1673ffffffffffffffffffffffffffffffffffffffff16815260200190815260200160002060008201518160000160006101000a81548160ff021916908315150217905550905050565b61082e33611125565b61086d576040517f08c379a000000000000000000000000000000000000000000000000000000000815260040161086490611c75565b60405180910390fd5b3373ffffffffffffffffffffffffffffffffffffffff1660008083815260200190815260200160002060020160009054906101000a900473ffffffffffffffffffffffffffffffffffffffff1673ffffffffffffffffffffffffffffffffffffffff1614610910576040517f08c379a000000000000000000000000000000000000000000000000000000000815260040161090790611bf5565b60405180910390fd5b60008082815260200190815260200160002060040160009054906101000a900460ff16610972576040517f08c379a000000000000000000000000000000000000000000000000000000000815260040161096990611c15565b60405180910390fd5b600080600083815260200190815260200160002060040160006101000a81548160ff02191690831515021790555060005b600480549050811015610b005781600482815481106109eb577f4e487b7100000000000000000000000000000000000000000000000000000000600052603260045260246000fd5b90600052602060002001541415610aed5760046001600480549050610a109190611f3f565b81548110610a47577f4e487b7100000000000000000000000000000000000000000000000000000000600052603260045260246000fd5b906000526020600020015460048281548110610a8c577f4e487b7100000000000000000000000000000000000000000000000000000000600052603260045260246000fd5b90600052602060002001819055506004805480610ad2577f4e487b7100000000000000000000000000000000000000000000000000000000600052603160045260246000fd5b60019003818190600052602060002001600090559055610b00565b8080610af89061202f565b9150506109a3565b507f44d826d13ee2bdbfaa5972e58cd7c73bfdd92615d71235511874dc0cefaff88781604051610b309190611d79565b60405180910390a150565b600560003373ffffffffffffffffffffffffffffffffffffffff1673ffffffffffffffffffffffffffffffffffffffff16815260200190815260200160002060009054906101000a900460ff1615610bc8576040517f08c379a0000000000000000000000000000000000000000000000000000000008152600401610bbf90611cb5565b60405180910390fd5b6001600560003373ffffffffffffffffffffffffffffffffffffffff1673ffffffffffffffffffffffffffffffffffffffff16815260200190815260200160002060006101000a81548160ff021916908315150217905550565b60056020528060005260406000206000915054906101000a900460ff1681565b610c4b33611125565b610c8a576040517f08c379a0000000000000000000000000000000000000000000000000000000008152600401610c8190611c75565b60405180910390fd5b60036000815480929190610c9d9061202f565b91905055506040518060a0016040528060035481526020018281526020013373ffffffffffffffffffffffffffffffffffffffff168152602001428152602001600015158152506000806003548152602001908152602001600020600082015181600001556020820151816001019080519060200190610d1e92919061138a565b5060408201518160020160006101000a81548173ffffffffffffffffffffffffffffffffffffffff021916908373ffffffffffffffffffffffffffffffffffffffff1602179055506060820151816003015560808201518160040160006101000a81548160ff0219169083151502179055509050507f7bc169625baf58d1aab41b0354e4922eafb5de7e06177fde90adde6318cbf227600354823342604051610dca9493929190611d94565b60405180910390a150565b60048181548110610de557600080fd5b906000526020600020016000915090505481565b60016020528060005260406000206000915090508060000160009054906101000a900460ff16905081565b610e2d33611125565b610e6c576040517f08c379a0000000000000000000000000000000000000000000000000000000008152600401610e6390611c75565b60405180910390fd5b3373ffffffffffffffffffffffffffffffffffffffff1660008083815260200190815260200160002060020160009054906101000a900473ffffffffffffffffffffffffffffffffffffffff1673ffffffffffffffffffffffffffffffffffffffff1614610f0f576040517f08c379a0000000000000000000000000000000000000000000000000000000008152600401610f0690611c35565b60405180910390fd5b60008082815260200190815260200160002060040160009054906101000a900460ff1615610f72576040517f08c379a0000000000000000000000000000000000000000000000000000000008152600401610f6990611cd5565b60405180910390fd5b600160008083815260200190815260200160002060040160006101000a81548160ff02191690831515021790555060048190806001815401808255809150506001900390600052602060002001600090919091909150557f72982bbf1e38bf7532ded3da2b3021ec6259d86abb34a687799c951ed615119481604051610ff89190611d79565b60405180910390a150565b61100b611410565b600260008473ffffffffffffffffffffffffffffffffffffffff1673ffffffffffffffffffffffffffffffffffffffff16815260200190815260200160002060008381526020019081526020016000206040518060600160405290816000820154815260200160018201805461108090611ffd565b80601f01602080910402602001604051908101604052809291908181526020018280546110ac90611ffd565b80156110f95780601f106110ce576101008083540402835291602001916110f9565b820191906000526020600020905b8154815290600101906020018083116110dc57829003601f168201915b505050505081526020016002820160009054906101000a900460ff161515151581525050905092915050565b6000600560008373ffffffffffffffffffffffffffffffffffffffff1673ffffffffffffffffffffffffffffffffffffffff16815260200190815260200160002060009054906101000a900460ff169050919050565b6002602052816000526040600020602052806000526040600020600091509150508060000154908060010180546111b190611ffd565b80601f01602080910402602001604051908101604052809291908181526020018280546111dd90611ffd565b801561122a5780601f106111ff5761010080835404028352916020019161122a565b820191906000526020600020905b81548152906001019060200180831161120d57829003601f168201915b5050505050908060020160009054906101000a900460ff16905083565b61124f611433565b6000808381526020019081526020016000206040518060a00160405290816000820154815260200160018201805461128690611ffd565b80601f01602080910402602001604051908101604052809291908181526020018280546112b290611ffd565b80156112ff5780601f106112d4576101008083540402835291602001916112ff565b820191906000526020600020905b8154815290600101906020018083116112e257829003601f168201915b505050505081526020016002820160009054906101000a900473ffffffffffffffffffffffffffffffffffffffff1673ffffffffffffffffffffffffffffffffffffffff1673ffffffffffffffffffffffffffffffffffffffff168152602001600382015481526020016004820160009054906101000a900460ff1615151515815250509050919050565b82805461139690611ffd565b90600052602060002090601f0160209004810192826113b857600085556113ff565b82601f106113d157805160ff19168380011785556113ff565b828001600101855582156113ff579182015b828111156113fe5782518255916020019190600101906113e3565b5b50905061140c919061147a565b5090565b604051806060016040528060008152602001606081526020016000151581525090565b6040518060a001604052806000815260200160608152602001600073ffffffffffffffffffffffffffffffffffffffff168152602001600081526020016000151581525090565b5b8082111561149357600081600090555060010161147b565b5090565b60006114aa6114a584611ea9565b611e78565b9050828152602081018484840111156114c257600080fd5b6114cd848285611fbb565b509392505050565b6000813590506114e481612116565b92915050565b600082601f8301126114fb57600080fd5b813561150b848260208601611497565b91505092915050565b6000813590506115238161212d565b92915050565b60006020828403121561153b57600080fd5b6000611549848285016114d5565b91505092915050565b6000806040838503121561156557600080fd5b6000611573858286016114d5565b925050602061158485828601611514565b9150509250929050565b6000602082840312156115a057600080fd5b600082013567ffffffffffffffff8111156115ba57600080fd5b6115c6848285016114ea565b91505092915050565b6000602082840312156115e157600080fd5b60006115ef84828501611514565b91505092915050565b6000806040838503121561160b57600080fd5b600061161985828601611514565b925050602083013567ffffffffffffffff81111561163657600080fd5b611642858286016114ea565b9150509250929050565b60006116588383611b4e565b60208301905092915050565b61166d81611f73565b82525050565b61167c81611f73565b82525050565b600061168d82611ee9565b6116978185611f0c565b93506116a283611ed9565b8060005b838110156116d35781516116ba888261164c565b97506116c583611eff565b9250506001810190506116a6565b5085935050505092915050565b6116e981611f85565b82525050565b6116f881611f85565b82525050565b600061170982611ef4565b6117138185611f1d565b9350611723818560208601611fca565b61172c81612105565b840191505092915050565b600061174282611ef4565b61174c8185611f2e565b935061175c818560208601611fca565b61176581612105565b840191505092915050565b600061177d602983611f2e565b91507f4f6e6c79207468652063726561746f722063616e20646561637469766174652060008301527f74686973206578616d00000000000000000000000000000000000000000000006020830152604082019050919050565b60006117e3601883611f2e565b91507f4578616d20697320616c726561647920696e61637469766500000000000000006000830152602082019050919050565b6000611823602783611f2e565b91507f4f6e6c79207468652063726561746f722063616e20616374697661746520746860008301527f6973206578616d000000000000000000000000000000000000000000000000006020830152604082019050919050565b6000611889601a83611f2e565b91507f53747564656e7420616c726561647920726567697374657265640000000000006000830152602082019050919050565b60006118c9602583611f2e565b91507f4f6e6c792063726561746f72732063616e20706572666f726d2074686973206160008301527f6374696f6e0000000000000000000000000000000000000000000000000000006020830152604082019050919050565b600061192f601283611f2e565b91507f4578616d206973206e6f742061637469766500000000000000000000000000006000830152602082019050919050565b600061196f601c83611f2e565b91507f4164647265737320697320616c726561647920612063726561746f72000000006000830152602082019050919050565b60006119af601683611f2e565b91507f4578616d20697320616c726561647920616374697665000000000000000000006000830152602082019050919050565b60006119ef603083611f2e565b91507f4f6e6c7920726567697374657265642073747564656e74732063616e2070657260008301527f666f726d207468697320616374696f6e000000000000000000000000000000006020830152604082019050919050565b6000611a55601883611f2e565b91507f416e7377657220616c7265616479207375626d697474656400000000000000006000830152602082019050919050565b600060a083016000830151611aa06000860182611b4e565b5060208301518482036020860152611ab882826116fe565b9150506040830151611acd6040860182611664565b506060830151611ae06060860182611b4e565b506080830151611af360808601826116e0565b508091505092915050565b6000606083016000830151611b166000860182611b4e565b5060208301518482036020860152611b2e82826116fe565b9150506040830151611b4360408601826116e0565b508091505092915050565b611b5781611fb1565b82525050565b611b6681611fb1565b82525050565b6000608082019050611b816000830187611673565b611b8e6020830186611b5d565b8181036040830152611ba08185611737565b9050611baf6060830184611b5d565b95945050505050565b60006020820190508181036000830152611bd28184611682565b905092915050565b6000602082019050611bef60008301846116ef565b92915050565b60006020820190508181036000830152611c0e81611770565b9050919050565b60006020820190508181036000830152611c2e816117d6565b9050919050565b60006020820190508181036000830152611c4e81611816565b9050919050565b60006020820190508181036000830152611c6e8161187c565b9050919050565b60006020820190508181036000830152611c8e816118bc565b9050919050565b60006020820190508181036000830152611cae81611922565b9050919050565b60006020820190508181036000830152611cce81611962565b9050919050565b60006020820190508181036000830152611cee816119a2565b9050919050565b60006020820190508181036000830152611d0e816119e2565b9050919050565b60006020820190508181036000830152611d2e81611a48565b9050919050565b60006020820190508181036000830152611d4f8184611a88565b905092915050565b60006020820190508181036000830152611d718184611afe565b905092915050565b6000602082019050611d8e6000830184611b5d565b92915050565b6000608082019050611da96000830187611b5d565b8181036020830152611dbb8186611737565b9050611dca6040830185611673565b611dd76060830184611b5d565b95945050505050565b600060a082019050611df56000830188611b5d565b8181036020830152611e078187611737565b9050611e166040830186611673565b611e236060830185611b5d565b611e3060808301846116ef565b9695505050505050565b6000606082019050611e4f6000830186611b5d565b8181036020830152611e618185611737565b9050611e7060408301846116ef565b949350505050565b6000604051905081810181811067ffffffffffffffff82111715611e9f57611e9e6120d6565b5b8060405250919050565b600067ffffffffffffffff821115611ec457611ec36120d6565b5b601f19601f8301169050602081019050919050565b6000819050602082019050919050565b600081519050919050565b600081519050919050565b6000602082019050919050565b600082825260208201905092915050565b600082825260208201905092915050565b600082825260208201905092915050565b6000611f4a82611fb1565b9150611f5583611fb1565b925082821015611f6857611f67612078565b5b828203905092915050565b6000611f7e82611f91565b9050919050565b60008115159050919050565b600073ffffffffffffffffffffffffffffffffffffffff82169050919050565b6000819050919050565b82818337600083830152505050565b60005b83811015611fe8578082015181840152602081019050611fcd565b83811115611ff7576000848401525b50505050565b6000600282049050600182168061201557607f821691505b60208210811415612029576120286120a7565b5b50919050565b600061203a82611fb1565b91507fffffffffffffffffffffffffffffffffffffffffffffffffffffffffffffffff82141561206d5761206c612078565b5b600182019050919050565b7f4e487b7100000000000000000000000000000000000000000000000000000000600052601160045260246000fd5b7f4e487b7100000000000000000000000000000000000000000000000000000000600052602260045260246000fd5b7f4e487b7100000000000000000000000000000000000000000000000000000000600052604160045260246000fd5b6000601f19601f8301169050919050565b61211f81611f73565b811461212a57600080fd5b50565b61213681611fb1565b811461214157600080fd5b5056fea2646970667358221220f24521ed9d5af7204ef73a0bc514d55c30d52220abb4117362245adb3debcb9e64736f6c63430008000033",
  "immutableReferences": {},
  "source": "// SPDX-License-Identifier: MIT\r\npragma solidity ^0.8.0;\r\n\r\ncontract DecentralizedExamSystem {\r\n\r\n    // Struct to hold exam details\r\n    struct Exam {\r\n        uint256 id;\r\n        string name;\r\n        address creator;\r\n        uint256 creationTime;\r\n        bool isActive;\r\n    }\r\n\r\n    // Struct to hold student details\r\n    struct Student {\r\n        bool isRegistered;\r\n    }\r\n\r\n    // Struct to hold student exam submission\r\n    struct Submission {\r\n        uint256 examId;\r\n        string answer;\r\n        bool isSubmitted;\r\n    }\r\n\r\n    // Mapping from exam ID to Exam details\r\n    mapping(uint256 => Exam) public exams;\r\n    // Mapping from student address to Student details\r\n    mapping(address => Student) public students;\r\n    // Mapping from student address to mapping of exam ID to Submission\r\n    mapping(address => mapping(uint256 => Submission)) public submissions;\r\n    // Counter for exam IDs\r\n    uint256 public examCount;\r\n    // List of active exams\r\n    uint256[] public activeExams;\r\n    // Event for exam creation\r\n    event ExamCreated(uint256 examId, string examName, address creator, uint256 creationTime);\r\n    // Event for exam submission\r\n    event AnswerSubmitted(address student, uint256 examId, string answer, uint256 submissionTime);\r\n    // Event for exam activation\r\n    event ExamActivated(uint256 examId);\r\n    // Event for exam deactivation\r\n    event ExamDeactivated(uint256 examId);\r\n\r\n    // Modifier to check if the caller is a student\r\n    modifier onlyStudent() {\r\n        require(students[msg.sender].isRegistered, \"Only registered students can perform this action\");\r\n        _;\r\n    }\r\n\r\n    // Modifier to check if the caller is a creator\r\n    modifier onlyCreator() {\r\n        require(isCreator(msg.sender), \"Only creators can perform this action\");\r\n        _;\r\n    }\r\n\r\n    // Mapping to track registered creators\r\n    mapping(address => bool) public creators;\r\n\r\n    // Function to register as a creator\r\n    function registerAsCreator() public {\r\n        require(!creators[msg.sender], \"Address is already a creator\");\r\n        creators[msg.sender] = true;\r\n    }\r\n\r\n    // Function to check if an address is a creator\r\n    function isCreator(address _address) public view returns (bool) {\r\n        return creators[_address];\r\n    }\r\n\r\n    // Function to create a new exam\r\n    function createExam(string memory _examName) public onlyCreator {\r\n        examCount++;\r\n        exams[examCount] = Exam(examCount, _examName, msg.sender, block.timestamp, false);\r\n        emit ExamCreated(examCount, _examName, msg.sender, block.timestamp);\r\n    }\r\n\r\n    // Function to activate an exam\r\n    function activateExam(uint256 _examId) public onlyCreator {\r\n        require(exams[_examId].creator == msg.sender, \"Only the creator can activate this exam\");\r\n        require(!exams[_examId].isActive, \"Exam is already active\");\r\n        exams[_examId].isActive = true;\r\n        activeExams.push(_examId);\r\n        emit ExamActivated(_examId);\r\n    }\r\n\r\n    // Function to deactivate an exam\r\n    function deactivateExam(uint256 _examId) public onlyCreator {\r\n        require(exams[_examId].creator == msg.sender, \"Only the creator can deactivate this exam\");\r\n        require(exams[_examId].isActive, \"Exam is already inactive\");\r\n        exams[_examId].isActive = false;\r\n        // Remove exam from active exams\r\n        for (uint256 i = 0; i < activeExams.length; i++) {\r\n            if (activeExams[i] == _examId) {\r\n                activeExams[i] = activeExams[activeExams.length - 1];\r\n                activeExams.pop();\r\n                break;\r\n            }\r\n        }\r\n        emit ExamDeactivated(_examId);\r\n    }\r\n\r\n    // Function for students to register\r\n    function registerStudent() public {\r\n        require(!students[msg.sender].isRegistered, \"Student already registered\");\r\n        students[msg.sender] = Student(true);\r\n    }\r\n\r\n    // Function to submit an answer\r\n    function submitAnswer(uint256 _examId, string memory _answer) public onlyStudent {\r\n        require(exams[_examId].isActive, \"Exam is not active\");\r\n        require(!submissions[msg.sender][_examId].isSubmitted, \"Answer already submitted\");\r\n\r\n        submissions[msg.sender][_examId] = Submission(_examId, _answer, true);\r\n        emit AnswerSubmitted(msg.sender, _examId, _answer, block.timestamp);\r\n    }\r\n\r\n    // Function to retrieve details of an exam\r\n    function getExam(uint256 _examId) public view returns (Exam memory) {\r\n        return exams[_examId];\r\n    }\r\n\r\n    // Function to retrieve submission details of a student for a particular exam\r\n    function getSubmission(address _student, uint256 _examId) public view returns (Submission memory) {\r\n        return submissions[_student][_examId];\r\n    }\r\n\r\n    // Function to retrieve list of active exams\r\n    function getActiveExams() public view returns (uint256[] memory) {\r\n        return activeExams;\r\n    }\r\n}\r\n",
  "sourcePath": "C:\\Users\\mythi\\exam-contract\\contracts\\DecentralizedExamSystem.sol",
  "compiler": {
    "name": "solc",
    "version": "0.8.0+commit.c7dfd78e.Emscripten.clang"
  },
  "schemaVersion": "3.4.16",
  "updatedAt": "2024-07-31T08:27:08.014Z",
  "networkType": "ethereum",
  "devdoc": {
    "kind": "dev",
    "methods": {},
    "version": 1
  },
  "userdoc": {
    "kind": "user",
    "methods": {},
    "version": 1
  }
}