{
  "contractName": "ExamManagement",
  "abi": [
    {
      "inputs": [
        {
          "internalType": "string",
          "name": "",
          "type": "string"
        },
        {
          "internalType": "uint256",
          "name": "",
          "type": "uint256"
        }
      ],
      "name": "examParticipants",
      "outputs": [
        {
          "internalType": "address",
          "name": "",
          "type": "address"
        }
      ],
      "stateMutability": "view",
      "type": "function",
      "constant": true
    },
    {
      "inputs": [
        {
          "internalType": "string",
          "name": "",
          "type": "string"
        }
      ],
      "name": "examScores",
      "outputs": [
        {
          "internalType": "uint256",
          "name": "",
          "type": "uint256"
        }
      ],
      "stateMutability": "view",
      "type": "function",
      "constant": true
    },
    {
      "inputs": [
        {
          "internalType": "string",
          "name": "",
          "type": "string"
        }
      ],
      "name": "exams",
      "outputs": [
        {
          "internalType": "string",
          "name": "examID",
          "type": "string"
        },
        {
          "internalType": "string",
          "name": "name",
          "type": "string"
        },
        {
          "internalType": "string",
          "name": "description",
          "type": "string"
        },
        {
          "internalType": "uint256",
          "name": "endDate",
          "type": "uint256"
        },
        {
          "internalType": "uint256",
          "name": "duration",
          "type": "uint256"
        }
      ],
      "stateMutability": "view",
      "type": "function",
      "constant": true
    },
    {
      "inputs": [
        {
          "internalType": "string",
          "name": "_examID",
          "type": "string"
        },
        {
          "internalType": "string",
          "name": "_name",
          "type": "string"
        },
        {
          "internalType": "string",
          "name": "_description",
          "type": "string"
        },
        {
          "internalType": "uint256",
          "name": "_endDate",
          "type": "uint256"
        },
        {
          "internalType": "uint256",
          "name": "_duration",
          "type": "uint256"
        }
      ],
      "name": "createExam",
      "outputs": [],
      "stateMutability": "nonpayable",
      "type": "function"
    },
    {
      "inputs": [
        {
          "internalType": "string",
          "name": "_examID",
          "type": "string"
        }
      ],
      "name": "deleteExam",
      "outputs": [],
      "stateMutability": "nonpayable",
      "type": "function"
    },
    {
      "inputs": [
        {
          "internalType": "string",
          "name": "_examID",
          "type": "string"
        }
      ],
      "name": "startExam",
      "outputs": [],
      "stateMutability": "nonpayable",
      "type": "function"
    },
    {
      "inputs": [
        {
          "internalType": "string",
          "name": "_examID",
          "type": "string"
        },
        {
          "internalType": "uint256",
          "name": "_score",
          "type": "uint256"
        }
      ],
      "name": "submitScore",
      "outputs": [],
      "stateMutability": "nonpayable",
      "type": "function"
    },
    {
      "inputs": [
        {
          "internalType": "string",
          "name": "_examID",
          "type": "string"
        },
        {
          "internalType": "address",
          "name": "_user",
          "type": "address"
        }
      ],
      "name": "isParticipant",
      "outputs": [
        {
          "internalType": "bool",
          "name": "",
          "type": "bool"
        }
      ],
      "stateMutability": "view",
      "type": "function",
      "constant": true
    }
  ],
  "bytecode": "0x608060405234801561001057600080fd5b50610f0d806100206000396000f3fe608060405234801561001057600080fd5b50600436106100885760003560e01c80635962be171161005b5780635962be1714610125578063d4f04bcd14610141578063f2c27e5f14610171578063f587dd551461018d57610088565b80630c43ee201461008d5780634756331e146100bd5780634a17aa57146100ed57806353ae989514610109575b600080fd5b6100a760048036038101906100a29190610a63565b6101c1565b6040516100b49190610ba5565b60405180910390f35b6100d760048036038101906100d29190610950565b610225565b6040516100e49190610bc0565b60405180910390f35b610107600480360381019061010291906109a4565b610378565b005b610123600480360381019061011e919061090f565b610432565b005b61013f600480360381019061013a9190610a63565b610496565b005b61015b6004803603810190610156919061090f565b610506565b6040516101689190610c63565b60405180910390f35b61018b6004803603810190610186919061090f565b610534565b005b6101a760048036038101906101a2919061090f565b6105b6565b6040516101b8959493929190610bdb565b60405180910390f35b60018280516020810182018051848252602083016020850120818352809550505050505081815481106101f357600080fd5b906000526020600020016000915091509054906101000a900473ffffffffffffffffffffffffffffffffffffffff1681565b6000806001846040516102389190610b8e565b90815260200160405180910390208054806020026020016040519081016040528092919081815260200182805480156102c657602002820191906000526020600020905b8160009054906101000a900473ffffffffffffffffffffffffffffffffffffffff1673ffffffffffffffffffffffffffffffffffffffff168152602001906001019080831161027c575b5050505050905060005b815181101561036b578373ffffffffffffffffffffffffffffffffffffffff16828281518110610329577f4e487b7100000000000000000000000000000000000000000000000000000000600052603260045260246000fd5b602002602001015173ffffffffffffffffffffffffffffffffffffffff16141561035857600192505050610372565b808061036390610dc2565b9150506102d0565b5060009150505b92915050565b6040518060a00160405280868152602001858152602001848152602001838152602001828152506000866040516103af9190610b8e565b908152602001604051809103902060008201518160000190805190602001906103d992919061079a565b5060208201518160010190805190602001906103f692919061079a565b50604082015181600201908051906020019061041392919061079a565b5060608201518160030155608082015181600401559050505050505050565b6000816040516104429190610b8e565b9081526020016040518091039020600080820160006104619190610820565b6001820160006104719190610820565b6002820160006104819190610820565b60038201600090556004820160009055505050565b6104a08233610225565b6104df576040517f08c379a00000000000000000000000000000000000000000000000000000000081526004016104d690610c43565b60405180910390fd5b806002836040516104f09190610b8e565b9081526020016040518091039020819055505050565b6002818051602081018201805184825260208301602085012081835280955050505050506000915090505481565b6001816040516105449190610b8e565b9081526020016040518091039020339080600181540180825580915050600190039060005260206000200160009091909190916101000a81548173ffffffffffffffffffffffffffffffffffffffff021916908373ffffffffffffffffffffffffffffffffffffffff16021790555050565b6000818051602081018201805184825260208301602085012081835280955050505050506000915090508060000180546105ef90610d90565b80601f016020809104026020016040519081016040528092919081815260200182805461061b90610d90565b80156106685780601f1061063d57610100808354040283529160200191610668565b820191906000526020600020905b81548152906001019060200180831161064b57829003601f168201915b50505050509080600101805461067d90610d90565b80601f01602080910402602001604051908101604052809291908181526020018280546106a990610d90565b80156106f65780601f106106cb576101008083540402835291602001916106f6565b820191906000526020600020905b8154815290600101906020018083116106d957829003601f168201915b50505050509080600201805461070b90610d90565b80601f016020809104026020016040519081016040528092919081815260200182805461073790610d90565b80156107845780601f1061075957610100808354040283529160200191610784565b820191906000526020600020905b81548152906001019060200180831161076757829003601f168201915b5050505050908060030154908060040154905085565b8280546107a690610d90565b90600052602060002090601f0160209004810192826107c8576000855561080f565b82601f106107e157805160ff191683800117855561080f565b8280016001018555821561080f579182015b8281111561080e5782518255916020019190600101906107f3565b5b50905061081c9190610860565b5090565b50805461082c90610d90565b6000825580601f1061083e575061085d565b601f01602090049060005260206000209081019061085c9190610860565b5b50565b5b80821115610879576000816000905550600101610861565b5090565b600061089061088b84610caf565b610c7e565b9050828152602081018484840111156108a857600080fd5b6108b3848285610d4e565b509392505050565b6000813590506108ca81610ea9565b92915050565b600082601f8301126108e157600080fd5b81356108f184826020860161087d565b91505092915050565b60008135905061090981610ec0565b92915050565b60006020828403121561092157600080fd5b600082013567ffffffffffffffff81111561093b57600080fd5b610947848285016108d0565b91505092915050565b6000806040838503121561096357600080fd5b600083013567ffffffffffffffff81111561097d57600080fd5b610989858286016108d0565b925050602061099a858286016108bb565b9150509250929050565b600080600080600060a086880312156109bc57600080fd5b600086013567ffffffffffffffff8111156109d657600080fd5b6109e2888289016108d0565b955050602086013567ffffffffffffffff8111156109ff57600080fd5b610a0b888289016108d0565b945050604086013567ffffffffffffffff811115610a2857600080fd5b610a34888289016108d0565b9350506060610a45888289016108fa565b9250506080610a56888289016108fa565b9150509295509295909350565b60008060408385031215610a7657600080fd5b600083013567ffffffffffffffff811115610a9057600080fd5b610a9c858286016108d0565b9250506020610aad858286016108fa565b9150509250929050565b610ac081610d06565b82525050565b610acf81610d18565b82525050565b6000610ae082610cdf565b610aea8185610cea565b9350610afa818560208601610d5d565b610b0381610e98565b840191505092915050565b6000610b1982610cdf565b610b238185610cfb565b9350610b33818560208601610d5d565b80840191505092915050565b6000610b4c601183610cea565b91507f4e6f742061207061727469636970616e740000000000000000000000000000006000830152602082019050919050565b610b8881610d44565b82525050565b6000610b9a8284610b0e565b915081905092915050565b6000602082019050610bba6000830184610ab7565b92915050565b6000602082019050610bd56000830184610ac6565b92915050565b600060a0820190508181036000830152610bf58188610ad5565b90508181036020830152610c098187610ad5565b90508181036040830152610c1d8186610ad5565b9050610c2c6060830185610b7f565b610c396080830184610b7f565b9695505050505050565b60006020820190508181036000830152610c5c81610b3f565b9050919050565b6000602082019050610c786000830184610b7f565b92915050565b6000604051905081810181811067ffffffffffffffff82111715610ca557610ca4610e69565b5b8060405250919050565b600067ffffffffffffffff821115610cca57610cc9610e69565b5b601f19601f8301169050602081019050919050565b600081519050919050565b600082825260208201905092915050565b600081905092915050565b6000610d1182610d24565b9050919050565b60008115159050919050565b600073ffffffffffffffffffffffffffffffffffffffff82169050919050565b6000819050919050565b82818337600083830152505050565b60005b83811015610d7b578082015181840152602081019050610d60565b83811115610d8a576000848401525b50505050565b60006002820490506001821680610da857607f821691505b60208210811415610dbc57610dbb610e3a565b5b50919050565b6000610dcd82610d44565b91507fffffffffffffffffffffffffffffffffffffffffffffffffffffffffffffffff821415610e0057610dff610e0b565b5b600182019050919050565b7f4e487b7100000000000000000000000000000000000000000000000000000000600052601160045260246000fd5b7f4e487b7100000000000000000000000000000000000000000000000000000000600052602260045260246000fd5b7f4e487b7100000000000000000000000000000000000000000000000000000000600052604160045260246000fd5b6000601f19601f8301169050919050565b610eb281610d06565b8114610ebd57600080fd5b50565b610ec981610d44565b8114610ed457600080fd5b5056fea2646970667358221220fe3b9ed030d3187475b944cc953cb9b4ebc79cc36b43bff15d037e49fb21992964736f6c63430008000033",
  "immutableReferences": {},
  "source": "// SPDX-License-Identifier: MIT\r\npragma solidity ^0.8.0;\r\n\r\ncontract ExamManagement {\r\n    struct Exam {\r\n        string examID;\r\n        string name;\r\n        string description;\r\n        uint endDate;\r\n        uint duration;\r\n    }\r\n\r\n    mapping(string => Exam) public exams;\r\n    mapping(string => address[]) public examParticipants;\r\n    mapping(string => uint) public examScores;\r\n\r\n    function createExam(\r\n        string memory _examID,\r\n        string memory _name,\r\n        string memory _description,\r\n        uint _endDate,\r\n        uint _duration\r\n    ) public {\r\n        exams[_examID] = Exam(_examID, _name, _description, _endDate, _duration);\r\n    }\r\n\r\n    function deleteExam(string memory _examID) public {\r\n        delete exams[_examID];\r\n    }\r\n\r\n    function startExam(string memory _examID) public {\r\n        examParticipants[_examID].push(msg.sender);\r\n    }\r\n\r\n    function submitScore(string memory _examID, uint _score) public {\r\n        require(isParticipant(_examID, msg.sender), \"Not a participant\");\r\n        examScores[_examID] = _score;\r\n    }\r\n\r\n    function isParticipant(string memory _examID, address _user) public view returns (bool) {\r\n        address[] memory participants = examParticipants[_examID];\r\n        for (uint i = 0; i < participants.length; i++) {\r\n            if (participants[i] == _user) {\r\n                return true;\r\n            }\r\n        }\r\n        return false;\r\n    }\r\n}\r\n",
  "sourcePath": "C:\\Users\\mythi\\exam-contract\\contracts\\ExamManagement.sol",
  "compiler": {
    "name": "solc",
    "version": "0.8.0+commit.c7dfd78e.Emscripten.clang"
  },
  "schemaVersion": "3.4.16",
  "updatedAt": "2024-07-31T08:27:08.024Z",
  "networkType": "ethereum",
  "devdoc": {
    "kind": "dev",
    "methods": {},
    "version": 1
  },
  "userdoc": {
    "kind": "user",
    "methods": {},
    "version": 1
  }
}