{
  "contractName": "UserData",
  "abi": [
    {
      "anonymous": false,
      "inputs": [
        {
          "indexed": false,
          "internalType": "address",
          "name": "user",
          "type": "address"
        },
        {
          "indexed": false,
          "internalType": "string",
          "name": "reason",
          "type": "string"
        }
      ],
      "name": "RegistrationFailed",
      "type": "event"
    },
    {
      "inputs": [
        {
          "internalType": "address",
          "name": "",
          "type": "address"
        }
      ],
      "name": "isRegistered",
      "outputs": [
        {
          "internalType": "bool",
          "name": "",
          "type": "bool"
        }
      ],
      "stateMutability": "view",
      "type": "function",
      "constant": true
    },
    {
      "inputs": [
        {
          "internalType": "address",
          "name": "",
          "type": "address"
        }
      ],
      "name": "users",
      "outputs": [
        {
          "internalType": "string",
          "name": "name",
          "type": "string"
        },
        {
          "internalType": "string",
          "name": "email",
          "type": "string"
        },
        {
          "internalType": "enum UserData.Role",
          "name": "role",
          "type": "uint8"
        }
      ],
      "stateMutability": "view",
      "type": "function",
      "constant": true
    },
    {
      "inputs": [
        {
          "internalType": "string",
          "name": "_name",
          "type": "string"
        },
        {
          "internalType": "string",
          "name": "_email",
          "type": "string"
        },
        {
          "internalType": "enum UserData.Role",
          "name": "_role",
          "type": "uint8"
        }
      ],
      "name": "registerUser",
      "outputs": [],
      "stateMutability": "nonpayable",
      "type": "function"
    },
    {
      "inputs": [
        {
          "internalType": "address",
          "name": "_userAddress",
          "type": "address"
        }
      ],
      "name": "getUser",
      "outputs": [
        {
          "internalType": "string",
          "name": "",
          "type": "string"
        },
        {
          "internalType": "string",
          "name": "",
          "type": "string"
        },
        {
          "internalType": "enum UserData.Role",
          "name": "",
          "type": "uint8"
        }
      ],
      "stateMutability": "view",
      "type": "function",
      "constant": true
    },
    {
      "inputs": [],
      "name": "checkRegistration",
      "outputs": [
        {
          "internalType": "bool",
          "name": "",
          "type": "bool"
        }
      ],
      "stateMutability": "view",
      "type": "function",
      "constant": true
    }
  ],
  "bytecode": "0x608060405234801561001057600080fd5b50610c62806100206000396000f3fe608060405234801561001057600080fd5b50600436106100575760003560e01c80632e17a9311461005c5780636f77926b14610078578063a87430ba146100aa578063c3c5a547146100dc578063fd1b21001461010c575b600080fd5b61007660048036038101906100719190610869565b61012a565b005b610092600480360381019061008d9190610840565b610337565b6040516100a19392919061099a565b60405180910390f35b6100c460048036038101906100bf9190610840565b610550565b6040516100d39392919061099a565b60405180910390f35b6100f660048036038101906100f19190610840565b610697565b604051610103919061097f565b60405180910390f35b6101146106b7565b604051610121919061097f565b60405180910390f35b600160003373ffffffffffffffffffffffffffffffffffffffff1673ffffffffffffffffffffffffffffffffffffffff16815260200190815260200160002060009054906101000a900460ff16156101b7576040517f08c379a00000000000000000000000000000000000000000000000000000000081526004016101ae906109df565b60405180910390fd5b6040518060600160405280848152602001838152602001826002811115610207577f4e487b7100000000000000000000000000000000000000000000000000000000600052602160045260246000fd5b8152506000803373ffffffffffffffffffffffffffffffffffffffff1673ffffffffffffffffffffffffffffffffffffffff168152602001908152602001600020600082015181600001908051906020019061026492919061070b565b50602082015181600101908051906020019061028192919061070b565b5060408201518160020160006101000a81548160ff021916908360028111156102d3577f4e487b7100000000000000000000000000000000000000000000000000000000600052602160045260246000fd5b021790555090505060018060003373ffffffffffffffffffffffffffffffffffffffff1673ffffffffffffffffffffffffffffffffffffffff16815260200190815260200160002060006101000a81548160ff021916908315150217905550505050565b6060806000806000808673ffffffffffffffffffffffffffffffffffffffff1673ffffffffffffffffffffffffffffffffffffffff16815260200190815260200160002060405180606001604052908160008201805461039690610b21565b80601f01602080910402602001604051908101604052809291908181526020018280546103c290610b21565b801561040f5780601f106103e45761010080835404028352916020019161040f565b820191906000526020600020905b8154815290600101906020018083116103f257829003601f168201915b5050505050815260200160018201805461042890610b21565b80601f016020809104026020016040519081016040528092919081815260200182805461045490610b21565b80156104a15780601f10610476576101008083540402835291602001916104a1565b820191906000526020600020905b81548152906001019060200180831161048457829003601f168201915b505050505081526020016002820160009054906101000a900460ff1660028111156104f5577f4e487b7100000000000000000000000000000000000000000000000000000000600052602160045260246000fd5b600281111561052d577f4e487b7100000000000000000000000000000000000000000000000000000000600052602160045260246000fd5b815250509050806000015181602001518260400151935093509350509193909250565b600060205280600052604060002060009150905080600001805461057390610b21565b80601f016020809104026020016040519081016040528092919081815260200182805461059f90610b21565b80156105ec5780601f106105c1576101008083540402835291602001916105ec565b820191906000526020600020905b8154815290600101906020018083116105cf57829003601f168201915b50505050509080600101805461060190610b21565b80601f016020809104026020016040519081016040528092919081815260200182805461062d90610b21565b801561067a5780601f1061064f5761010080835404028352916020019161067a565b820191906000526020600020905b81548152906001019060200180831161065d57829003601f168201915b5050505050908060020160009054906101000a900460ff16905083565b60016020528060005260406000206000915054906101000a900460ff1681565b6000600160003373ffffffffffffffffffffffffffffffffffffffff1673ffffffffffffffffffffffffffffffffffffffff16815260200190815260200160002060009054906101000a900460ff16905090565b82805461071790610b21565b90600052602060002090601f0160209004810192826107395760008555610780565b82601f1061075257805160ff1916838001178555610780565b82800160010185558215610780579182015b8281111561077f578251825591602001919060010190610764565b5b50905061078d9190610791565b5090565b5b808211156107aa576000816000905550600101610792565b5090565b60006107c16107bc84610a30565b6109ff565b9050828152602081018484840111156107d957600080fd5b6107e4848285610adf565b509392505050565b6000813590506107fb81610c05565b92915050565b60008135905061081081610c1c565b92915050565b600082601f83011261082757600080fd5b81356108378482602086016107ae565b91505092915050565b60006020828403121561085257600080fd5b6000610860848285016107ec565b91505092915050565b60008060006060848603121561087e57600080fd5b600084013567ffffffffffffffff81111561089857600080fd5b6108a486828701610816565b935050602084013567ffffffffffffffff8111156108c157600080fd5b6108cd86828701610816565b92505060406108de86828701610801565b9150509250925092565b6108f181610a8e565b82525050565b61090081610acd565b82525050565b600061091182610a60565b61091b8185610a6b565b935061092b818560208601610aee565b61093481610be0565b840191505092915050565b600061094c601783610a6b565b91507f5573657220616c726561647920726567697374657265640000000000000000006000830152602082019050919050565b600060208201905061099460008301846108e8565b92915050565b600060608201905081810360008301526109b48186610906565b905081810360208301526109c88185610906565b90506109d760408301846108f7565b949350505050565b600060208201905081810360008301526109f88161093f565b9050919050565b6000604051905081810181811067ffffffffffffffff82111715610a2657610a25610bb1565b5b8060405250919050565b600067ffffffffffffffff821115610a4b57610a4a610bb1565b5b601f19601f8301169050602081019050919050565b600081519050919050565b600082825260208201905092915050565b6000610a8782610aad565b9050919050565b60008115159050919050565b6000819050610aa882610bf1565b919050565b600073ffffffffffffffffffffffffffffffffffffffff82169050919050565b6000610ad882610a9a565b9050919050565b82818337600083830152505050565b60005b83811015610b0c578082015181840152602081019050610af1565b83811115610b1b576000848401525b50505050565b60006002820490506001821680610b3957607f821691505b60208210811415610b4d57610b4c610b82565b5b50919050565b7f4e487b7100000000000000000000000000000000000000000000000000000000600052602160045260246000fd5b7f4e487b7100000000000000000000000000000000000000000000000000000000600052602260045260246000fd5b7f4e487b7100000000000000000000000000000000000000000000000000000000600052604160045260246000fd5b6000601f19601f8301169050919050565b60038110610c0257610c01610b53565b5b50565b610c0e81610a7c565b8114610c1957600080fd5b50565b60038110610c2957600080fd5b5056fea26469706673582212209274225013a63ce29b3ccd492fb6d0d2e8dc3faf3320e97ddb5db2b6f7b5998064736f6c63430008000033",
  "immutableReferences": {},
  "source": "// SPDX-License-Identifier: MIT\r\npragma solidity ^0.8.0;\r\n\r\ncontract UserData {\r\n    enum Role {\r\n        None,\r\n        Student,\r\n        Admin\r\n    }\r\n\r\n    struct User {\r\n        string name;\r\n        string email;\r\n        Role role;\r\n    }\r\n\r\n    mapping(address => User) public users;\r\n    mapping(address => bool) public isRegistered;\r\n\r\n    function registerUser(\r\n        string memory _name,\r\n        string memory _email,\r\n        Role _role\r\n    ) public {\r\n        require(!isRegistered[msg.sender], \"User already registered\");\r\n        users[msg.sender] = User(_name, _email, _role);\r\n        isRegistered[msg.sender] = true;\r\n    }\r\n\r\n    function getUser(\r\n        address _userAddress\r\n    ) public view returns (string memory, string memory, Role) {\r\n        User memory user = users[_userAddress];\r\n        return (user.name, user.email, user.role);\r\n    }\r\n\r\n    function checkRegistration() public view returns (bool) {\r\n        return isRegistered[msg.sender];\r\n    }\r\n\r\n    event RegistrationFailed(address user, string reason);\r\n}\r\n",
  "sourcePath": "C:\\Users\\mythi\\exam-contract\\contracts\\UserData.sol",
  "compiler": {
    "name": "solc",
    "version": "0.8.0+commit.c7dfd78e.Emscripten.clang"
  },
  "schemaVersion": "3.4.16",
  "updatedAt": "2024-07-31T08:27:08.035Z",
  "networkType": "ethereum",
  "devdoc": {
    "kind": "dev",
    "methods": {},
    "version": 1
  },
  "userdoc": {
    "kind": "user",
    "methods": {},
    "version": 1
  }
}